:020000040800F2
:1000000000000320DD0800088D08000893080008A0
:10001000990800089F080008A508000800000000D3
:10002000000000000000000000000000ED010008DA
:10003000AB080008000000000D0200087D0D00085C
:100040002D0900082D0900082D0900082D090008B8
:100050002D0900082D0900082D0900082D090008A8
:100060002D0900082D0900082D0900082D09000898
:100070002D0900082D0900082D0900082D09000888
:100080002D0900082D0900082D0900082D09000878
:100090002D0900082D0900082D0900082D09000868
:1000A0002D0900082D0900082D0900082D09000858
:1000B0002D0900082D0900082D0900082D09000848
:1000C0002D0900082D0900082D0900082D09000838
:1000D0002D0900082D0900082D0900082D09000828
:1000E0002D0900082D0900082D0900082D09000818
:1000F0002D0900082D0900082D0900082D09000808
:100100002D0900082D0900082D0900082D090008F7
:100110002D0900082D0900082D0900082D090008E7
:100120002D0900082D0900082D0900082D090008D7
:100130002D0900082D0900082D0900082D090008C7
:100140002D0900082D0900082D0900082D090008B7
:100150002D0900082D0900082D0900082D090008A7
:100160002D0900082D0900082D0900082D09000897
:100170002D0900082D0900082D09000800000000C5
:100180002D0900082D0900082D0900082D09000877
:100190002D0900082D0900082D0900082D09000867
:0C01A0002D0900082D0900082D09000899
:1001AC0010B5054C237833B9044B13B10448AFF3A5
:1001BC0000800123237010BD080000200000000007
:1001CC00F41A000808B5034B1BB103490348AFF3FD
:1001DC00008008BD000000000C000020F41A00088C
:1001EC001EF0040F0CBFEFF30880EFF309801A49DF
:1001FC00C1F800E000F07CFC1749D1F800E0704732
:10020C00EFF309811EF0100F08BF21ED108A724622
:10021C00EFF3148321E9FC0F01F0C8FA01604FF0F1
:10022C00010080F3118801F06BFA4FF0000080F3AD
:10023C00118801F0BBFA0168B1E8FC0F964683F314
:10024C001488BFF36F8F1EF0100F08BFB1EC108A2B
:10025C0081F30988704700008CA3002000DF7047F1
:10026C0001DF704702DF704703DF704704DF704720
:10027C0005DF704706DF704707DF704708DF704700
:10028C0009DF70470ADF70470BDF70470CDF7047E0
:10029C000DDF704780B483B000AF49F699137B60D3
:1002AC00704B1B6B6F4A43F0010313636E4B1B685F
:1002BC006D4A23F0707313606B4B1B686A4A43F0F2
:1002CC0020731360684B9B68674A23F040739360FC
:1002DC00654B9B68644A43F080739360624B5B6A26
:1002EC00614A23F47F2353625F4B5B6A5E4A43F49B
:1002FC00192353625B4B4FF000721A645B4B1B6803
:10030C005A4A43F040031360584B1B68574A43F05A
:10031C0004031360554B1B68544A43F001031360EC
:10032C00524B1B68514A23F00203136000BF4F4B22
:10033C005B6803F00203022BF9D04C4B5B6803F0B3
:10034C000103012BF3D1494B494ADA61474BDB6975
:10035C00464A43F08043D361444BDB69434A43F044
:10036C000043D361414B0022C3F880213F4BD3F8AB
:10037C0080313E4A43F01473C2F880313B4BD3F8C2
:10038C0084313A4A23F00F03C2F88431374BD3F847
:10039C008431364A43F00103C2F88431334B0022D6
:1003AC00C3F88821314B0022C3F88C212F4BD3F892
:1003BC0000322E4A43F00103C2F800322B4BD3F823
:1003CC0004322A4A23F01403C2F80432274BD3F820
:1003DC000432264A43F00A03C2F80432234BD3F802
:1003EC001432224A23F01E03C2F814321F4B214A46
:1003FC00C3F848221D4B1F4AC3F84C221B4B1E4A04
:10040C00C3F85022194B1C4AC3F85422174B1B4AF1
:10041C00C3F85822154B194AC3F85C22134B184ADF
:10042C00C3F86022114B164AC3F864220F4BD3F861
:10043C001C320E4A43F01E03C2F81C320B4BD3F88D
:10044C0000320A4A23F00103C2F80032074B1B6842
:10045C00064A23F00303136000BF0C37BD465DF85A
:10046C00047B7047003802400000024000640040EA
:10047C0004000600A004A00400021FFEA002A002BB
:10048C0000041FFE80B400AF0F4B9B6803F0806329
:10049C00B3F1806F13D10C4BD3F880310A4A43F07F
:1004AC001473C2F88031084B0F22C3F88821064B15
:1004BC00D3F88031044A43F00103C2F8803100BF05
:1004CC00BD465DF8047B70470064004080B400AF0B
:1004DC000F4B9B6803F08063B3F1806F13D10C4B0F
:1004EC00D3F880310A4A43F09873C2F88031084B34
:1004FC001F22C3F88821064BD3F88031044A43F0FD
:10050C000103C2F8803100BFBD465DF8047B704723
:10051C000064004080B400AF0F4B9B6803F0806315
:10052C00B3F1806F13D10C4BD3F880310A4A43F0EE
:10053C00A873C2F88031084B0F22C3F88821064BF0
:10054C00D3F88031044A43F00103C2F8803100BF74
:10055C00BD465DF8047B70470064004080B400AF7A
:10056C000F4B9B6803F08063B3F1806F13D10C4B7E
:10057C00D3F880310A4A43F01C73C2F88031084B1F
:10058C001F22C3F88821064BD3F88031044A43F06C
:10059C000103C2F8803100BFBD465DF8047B704793
:1005AC000064004080B483B000AF0023FB71294B82
:1005BC00DB6803F00303002B46D0264BD3F8B8318D
:1005CC00BB71244BD3F8B4311B0A7B71214BD3F88C
:1005DC00B4313B717B79012B1BD97B79072B18D854
:1005EC003B79012B15D1BB790F2B07D102E0FB799D
:1005FC000133FB71FB79632BF9D91EE0BB791F2BFF
:10060C001BD102E0FB790133FB71FB79632BF9D928
:10061C0013E07B79072B11D97B790D2B0ED83B7905
:10062C00012B0BD1BB790F2B08D102E0FB790133E5
:10063C00FB71FB79632BF9D900E000BF054BDB683C
:10064C00044A43F02003D36000BF0C37BD465DF86D
:10065C00047B70470064004080B483B000AF7860C6
:10066C004FF06043D3F8803E03F00103002B13D00E
:10067C004FF06043D3F8003E03F00103002B0BD086
:10068C0000E000BF4FF060431B68002BF9D04FF027
:10069C0060437A68D2B21A707B6818460C37BD4634
:1006AC005DF8047B704780B582B000AF78607B68E2
:1006BC00002B0CD007E07B681B781846FFF7CCFFAB
:1006CC007B6801337B607B681B78002BF3D100BF08
:1006DC000837BD4680BD000080B582B000AF174B17
:1006EC007B6001211648FFF7C5FD1548FFF7C4FDD7
:1006FC000A211448FFF7B8FD0346002B05D10F2043
:10070C00FFF7C2FD0F48FFF7B1FD0120FFF7BCFD5D
:10071C00FFF7B8FE0A20FFF7B7FDFFF7D7FE0A2058
:10072C00FFF7B2FDFFF7F6FE0A20FFF7ADFDFFF76E
:10073C0015FF0A20FFF7A8FDD3E700BF44332211B1
:10074C007C8100206081002080B582B000AF0F4B0F
:10075C007B6001210E48FFF78DFD0D48FFF78CFDE6
:10076C000A210C48FFF780FD0346002B05D10F2012
:10077C00FFF78AFD0748FFF779FD0120FFF784FD9D
:10078C00FFF710FF0120FFF77FFDE2E78877665542
:10079C007C8100206081002080B582B000AF0B4BC3
:1007AC007B600A210A48FFF75FFD0346002B08D146
:1007BC000848FFF778FF0F20FFF766FD0448FFF7A6
:1007CC0055FD0120FFF760FDEBE700BF11101099FC
:1007DC00608100200C1B000880B400AFFEE7000015
:1007EC0080B500AFFFF756FD00F03EF9144B012227
:1007FC0014491548FFF734FD144B012214491548D0
:10080C00FFF72EFD144B012214491548FFF728FD64
:10081C00144B012214491548FFF722FD01211448FD
:10082C00FFF720FD01211348FFF722FD04230222CC
:10083C0011491248FFF722FDFFF710FDFEE700BF3C
:10084C00E506000870000020240000205507000871
:10085C00C020002070200020A507000810410020B7
:10086C00C0400020E50700086061002010610020F6
:10087C00608100207C810020C881002098810020AC
:10088C0080B400AFFEE780B400AFFEE780B400AFE9
:10089C00FEE780B400AFFEE780B400AFFEE780B4A3
:1008AC0000AF00BFBD465DF8047B704780B400AF5D
:1008BC00064BD3F88830054A43F47003C2F88830ED
:1008CC0000BFBD465DF8047B704700BF00ED00E043
:1008DC00DFF834D00D480E490E4A002302E0D458FC
:1008EC00C4500433C4188C42F9D30B4A0B4C00236C
:1008FC0001E013600432A242FBD3FFF7D7FF01F0F3
:10090C00C1F8FFF76DFF70470000032000000020C6
:10091C0004000020001C00080800002090A3002008
:10092C00FEE780B582B000AF7860396000F004F863
:10093C0000BF0837BD4680BD80B400AF72B600BFA3
:10094C00FEE7000080B485B000AF78607B6803F0F0
:10095C000703FB600C4BDB68BB60BA684FF6FF0308
:10096C001340BB60FB681A02BB68134343F0BF63C0
:10097C0043F40033BB60044ABB68D36000BF143738
:10098C00BD465DF8047B704700ED00E080B483B099
:10099C0000AF0346FB7197F90730002B0BDBFB799B
:1009AC0003F01F02074997F907305B09012000FA91
:1009BC0002F241F8232000BF0C37BD465DF8047BE2
:1009CC00704700BF00E100E080B483B000AF034685
:1009DC003960FB7197F90730002B0ADB3B68DAB200
:1009EC000C4997F907301201D2B20B4483F800235B
:1009FC000AE03B68DAB20849FB7903F00F03043BC9
:100A0C001201D2B20B441A7600BF0C37BD465DF80A
:100A1C00047B704700E100E000ED00E080B582B09F
:100A2C0000AF78607B68013BB3F1807F01D3012379
:100A3C000FE00A4A7B68013B53600F214FF0FF30F7
:100A4C00FFF7C2FF054B00229A60044B07221A6085
:100A5C00002318460837BD4680BD00BF10E000E0FB
:100A6C0080B400AFFEE7000080B582B000AF72B674
:100A7C0000BF1C4B5B691B4A43F4007353611A485B
:100A8C00FFF7CCFF0346002B03D083211748FFF759
:100A9C0048FF0320FFF756FF00216FF00400FFF71B
:100AAC0093FF01214FF0FF30FFF78EFFFF216FF016
:100ABC000100FFF789FF6FF00100FFF767FF6FF090
:100ACC000400FFF763FF01237B607B6883F31188CD
:100ADC0000BF00F045FD62B600BF00BF0837BD4641
:100AEC0080BD00BF00ED00E020BF0200301B0008FD
:100AFC0080B584B000AF78607B68002B03D1BB213C
:100B0C007548FFF70EFF7B6818331B68023B1B7898
:100B1C00BB73BB7B0D2B00F2B08001A252F823F00B
:100B2C00650B00086B0B00088B0B0008A10B000871
:100B3C00BB0B0008C70B0008DD0B0008F70B000807
:100B4C00030C0008230C0008430C0008630C00087D
:100B5C006F0C00087B0C000800F0C0F893E07B6879
:100B6C001B6818467B6804331B6819467B6808337E
:100B7C001A687B680C331B6800F010FD83E07B68FF
:100B8C001B681A467B6804331B681946104600F034
:100B9C0021FB78E07B681B681A467B6804331B6872
:100BAC001946104600F03EFB0346FB736BE07B6876
:100BBC001B68184600F0B0FB65E07B681B681A46A2
:100BCC007B6804331B681946104600F0E1FB5AE0C1
:100BDC007B681B681A467B6804331B6819461046F1
:100BEC0000F0F0FB0346FB734DE07B681B68184676
:100BFC0000F060FC47E07B681B6818467B68043398
:100C0C001B6819467B6808331A687B680C331B68B1
:100C1C0000F0CCF937E07B681B6818467B6804331E
:100C2C001B6819467B6808331B681A4600F010FADB
:100C3C000346FB7327E07B681B6818467B6804330C
:100C4C001B6819467B6808331B681A4600F060FA6B
:100C5C000346FB7317E07B681B68184600F0B2FD77
:100C6C0011E07B681B68184600F038FE0BE07B68CF
:100C7C001B68184600F0CEFE05E040F2191116482C
:100C8C00FFF74FFE00BFBB7B0A2B8CBF012200225B
:100C9C00D2B2002A1AD1012202FA03F303F4C96377
:100CAC00002B14BF01230023DBB2002B0ED0FB7BE7
:100CBC00022B07D17B6818331A687B681833023A09
:100CCC001A6004E0FA7B7B681A6000E000BF00BF8A
:100CDC001037BD4680BD00BF301B000880B584B006
:100CEC0000AF184B0F221849184800F057FC00F0C1
:100CFC0007FD00F05BFDF860FB681B681B68144A7D
:100D0C001360FB681B6828333B603B6883F30988DE
:100D1C0000BFFB681B6804331B687B607B6883F334
:100D2C00148800BFBFF36F8F00BF0A4B01221A60FB
:100D3C000023BB60BB6883F3118800BF00BF103772
:100D4C00BD4680BD6D0A000828820020D881002095
:100D5C008CA30020D481002080B400AF034B1B680F
:100D6C001846BD465DF8047B704700BFD481002057
:100D7C0080B500AF044B5B68034A43F0805353606B
:100D8C0000F062FD00BF80BD00ED00E080B582B0D8
:100D9C0000AF78607B68002B03D169210E48FFF708
:100DAC00C0FD7B6803F108027B685A607B6803F125
:100DBC0008027B68DA607B6803F108027B681A61C1
:100DCC007B684FF0FF329A607B6800221A6000BF8C
:100DDC000837BD4680BD00BF4C1B000880B483B0F3
:100DEC0000AF786039607B685B685A683B685A6012
:100DFC007B685A683B689A607B685B685B683A689A
:100E0C009A607B685B683A685A607B683A685A609B
:100E1C003B687A681A617B681B685A1C7B681A608D
:100E2C0000BF0C37BD465DF8047B704780B485B0BD
:100E3C0000AF78607B681B69FB607B685B687A68D5
:100E4C0092689A607B689B687A6852685A60FB6803
:100E5C005B687A689A4203D17B689A68FB685A602F
:100E6C007B6800221A61FB681B685A1EFB681A60BB
:100E7C0000BF1437BD465DF8047B704780B584B065
:100E8C0000AF786039607B68002B03D1C3211C480C
:100E9C00FFF747FD3B68002B03D1C4211848FFF72F
:100EAC0040FD7B680833FB6002E0FB685B68FB601D
:100EBC00FB685A687B6808339A4206D0FB685B680B
:100ECC001A683B681B689A42EFD9FB685A683B6802
:100EDC005A603B68FA689A60FB685B683A689A608B
:100EEC00FB683A685A603B687A681A617B681B68D1
:100EFC005A1C7B681A6000BF1037BD4680BD00BF0E
:100F0C004C1B000880B584B000AF78607B68002B68
:100F1C0003D160211348FFF704FD7B68DB69002BCC
:100F2C001BD07B689B6ADB68FB60FB68002B03D1E2
:100F3C006B210C48FFF7F5FCFB6834331846FFF7C0
:100F4C0075FFFB681B6B002B04D0FB682033184625
:100F5C00FFF76CFFF86800F091FB00BF1037BD463F
:100F6C0080BD00BF6C1B000880B584B000AF7860FA
:100F7C0000F01CFCF860FB6820331846FFF756FFA6
:100F8C007B6803F11C02FB68343319461046FFF7EB
:100F9C0075FF054B5B68044A43F08053536000BFF8
:100FAC001037BD4680BD00BF00ED00E080B584B0B9
:100FBC0000AFF860B9607A603B60FB68002B03D12E
:100FCC00AE212248FFF7ADFCBB68002B03D1AF214B
:100FDC001E48FFF7A6FC7B68002B03D1B0211B48F1
:100FEC00FFF79FFC3B68012B09D03B68022B06D016
:100FFC003B68042B03D0B1211448FFF792FCFB682B
:10100C00BA681A60FB681A687B68396801FB03F3DD
:10101C001A44FB685A60FB681A68FB689A60FB68A4
:10102C001A68FB68DA60FB687A681A61FB683A68D0
:10103C005A61FB6800229A61FB681C331846FFF763
:10104C00A5FE00BF1037BD4680BD00BF6C1B00085D
:10105C0080B586B000AFF860B9607A60FB68002B91
:10106C0003D1D4212948FFF75CFCBB68B3F1FF3FE7
:10107C0003DAD5212548FFF754FC7B68002B03D1FC
:10108C00D6212248FFF74DFC0123FB75FB681A693A
:10109C00FB689B699A4222D9FB68D868FB685B693C
:1010AC001A46796800F012FDFB68DA68FB685B6928
:1010BC001A44FB68DA60FB68DA68FB685B689A4282
:1010CC0003D3FB681A68FB68DA60FB689B695A1CDF
:1010DC00FB689A61F868FFF715FF0023FB75BB6886
:1010EC00002B0ED0FB7D002B0BD0F868FFF73CFFDC
:1010FC00BB68002B03DDBB68184600F063FB0223C2
:10110C00FB75FB7D18461837BD4680BD6C1B00086F
:10111C0080B586B000AFF860B9607A60FB68002BD0
:10112C0004D14FF48E712A48FFF7FBFBBB68B3F177
:10113C00FF3F04DA40F21D112548FFF7F2FB7B68F4
:10114C00002B04D14FF48F712148FFF7EAFB0123E8
:10115C00FB75FB689B69002B22D0FB689968FB68C8
:10116C005B691A46786800F0B1FCFB689A68FB680A
:10117C005B691A44FB689A60FB689A68FB685B6859
:10118C009A4203D3FB681A68FB689A60FB689B69F8
:10119C005A1EFB689A61F868FFF7B4FE0023FB75D2
:1011AC00BB68002B0ED1FB7D002B0BD0F868FFF732
:1011BC00DBFEBB68002B03DDBB68184600F002FBAE
:1011CC000223FB75FB7D18461837BD4680BD00BF5A
:1011DC006C1B000880B582B000AF786039607B680A
:1011EC00002B03D166210E48FFF79BFB3B68002BBD
:1011FC0006D03B68012B03D067210948FFF791FB10
:10120C007B6808331846FFF7C1FD7B683A681A60A3
:10121C007B6800225A6000BF0837BD4680BD00BF06
:10122C00901B000880B58AB000AF786039607B688D
:10123C00002B03D181213648FFF773FB3B68B3F1D8
:10124C00FF3F03DA82213248FFF76BFB012387F85B
:10125C00273000233B6224E07B68BB61BB6953E809
:10126C00003F7B617B69012B19D17B6800223A61BD
:10127C00FB60F9683A6941E80023BB60BB68002B4E
:10128C000FD1BFF35F8F00BF002387F8273000F02A
:10129C008DFA02467B685A6001233B6201E0012310
:1012AC003B623B6A002BD7D03B68002B29D097F8C8
:1012BC002730002B25D000F079FAF861FB69203338
:1012CC001846FFF7B3FD7B6803F10802FB69343362
:1012DC0019461046FFF7D2FD0E4B5B680D4A43F0E2
:1012EC00805353603B68002B03DD3B68184600F0CD
:1012FC0069FA7B685B68184600F024FB022387F8C8
:10130C00273097F8273018462837BD4680BD00BFD8
:10131C00901B000800ED00E080B584B000AF786051
:10132C007B68002B03D1E7211848FFF7FAFABFF3CB
:10133C005F8F00BF7B6801221A607B689B68002B63
:10134C001BD07B685B69DB68FB60FB68002B03D1FF
:10135C00F9210E48FFF7E5FAFB6834331846FFF71E
:10136C0065FDFB681B6B002B04D0FB682033184613
:10137C00FFF75CFDF86800F081F900F025FB7B6855
:10138C0000225A6000BF1037BD4680BD901B00087C
:10139C0080B582B000AF786039607B68002B03D1D8
:1013AC0066210748FFF7BDFA7B6808331846FFF73C
:1013BC00EDFC7B683A681A6000BF0837BD4680BDFB
:1013CC00B01B000880B58CB000AF786039607B68CA
:1013DC00002B03D178213548FFF7A3FA3B68B3F112
:1013EC00FF3F03DA79213148FFF79BFA012387F895
:1013FC002F3000237B620023BB6225E07B68FB61FE
:10140C00FB6953E8003FBB61BB697B627B6A002BC5
:10141C0015D07B6A5A1E7B687A613B6139697A699F
:10142C0041E80023FB60FB68002B0DD1BFF35F8FFD
:10143C0000BF002387F82F300123BB6204E0BFF309
:10144C002F8F00BF0123BB62BB6A002BD6D03B6839
:10145C00002B24D097F82F30002B20D000F0A6F9C9
:10146C0038623B6A20331846FFF7E0FC7B6803F1D7
:10147C0008023B6A343319461046FFF7FFFC0C4B4D
:10148C005B680B4A43F0805353603B68002B03DDD1
:10149C003B68184600F096F9022387F82F3097F82E
:1014AC002F3018463037BD4680BD00BFB01B00083A
:1014BC0000ED00E080B58AB000AF78607B68002B4F
:1014CC0003D1E2212548FFF72CFA00233B620023CD
:1014DC007B621BE07B68FB60FB6853E8003FBB60F2
:1014EC00BB683B623B6A01333B627B683A6ABA6118
:1014FC007B617969BA6941E800233B613B69002B48
:10150C0004D101237B62BFF35F8F00BF7B6A012B89
:10151C00E0D17B689B68002B1CD07B685B69DB6827
:10152C00FB61FB69002B04D14FF486710B48FFF76C
:10153C00F8F9FB6934331846FFF778FCFB691B6B31
:10154C00002B04D0FB6920331846FFF76FFCF869B9
:10155C0000F094F800BF2837BD4680BDB01B0008D2
:10156C0080B582B000AF00237B600CE07A68134634
:10157C009B0013449B00084A13441846FFF706FCD3
:10158C007B6801337B607B680F2BEFD900BF00BFFA
:10159C000837BD4680BD00BF28A2002080B584B0AE
:1015AC0000AFF860B9607A603B60FB68002B03D138
:1015BC0094213048FFF7B5F9BB68002B03D1952176
:1015CC002C48FFF7AEF93B68002B03D19621294834
:1015DC00FFF7A7F97B680F2B03D997212548FFF755
:1015EC00A0F9BB6803F5FD531833FA681360FB6868
:1015FC001B6840331A463B681360FB681B68443316
:10160C001A464FF080731360FB681B681A466FF024
:10161C0002031360FB681B6804331A460323136030
:10162C00FB687A685A60FB687A689A64FB689B6806
:10163C00002B08D1104B1B6801330F4A13600E4B63
:10164C001A68FB689A60FB6800221A63FB68002228
:10165C005A64FB68FA68DA62FB68FA681A64FB6819
:10166C007A685A63F86800F009F800BF1037BD4675
:10167C0080BD00BFD41B000884A3002080B582B0BD
:10168C0000AF78607B68002B03D1F8211748FFF777
:10169C0048F97B685A6813469B0013449B00144A14
:1016AC001A447B68203319461046FFF797FB7B687A
:1016BC005A68104B1B689A4203D27B685B680D4AD0
:1016CC0013600D4B1B68002B0CD07B685A680A4BBF
:1016DC001B685B689A4205D2084B5B68074A43F06B
:1016EC008053536000BF0837BD4680BDD41B000833
:1016FC0028A20020000000207CA3002000ED00E0C8
:10170C0080B582B000AF13E0234B1B680F2B04D9BC
:10171C0040F21B112148FFF704F91F4B1B680133E2
:10172C001D4A13601C4B1B6803F00F031A4A13600D
:10173C00194B1A681A4913469B0013449B000B441F
:10174C001B68002BE0D0144B1A6813469B00134403
:10175C009B00134A13447B607B685B685A687B6808
:10176C005A607B685A687B6808339A4204D17B685C
:10177C005B685A687B685A607B685B68DB68094AFF
:10178C0013607B685B68DB689B68074A136000BF6B
:10179C000837BD4680BD00BF00000020D41B0008E8
:1017AC0028A200207CA3002080A3002080B400AFDE
:1017BC00034B1B681846BD465DF8047B704700BFA1
:1017CC007CA3002080B584B000AF78607B68002BD0
:1017DC0004D140F249111748FFF7A3F80023FB602E
:1017EC00154B1B687A681344FB60134B1B68FA6833
:1017FC009A4204D84FF4A9710E48FFF792F80F4B98
:10180C001B68FA681A620D4B1B6820331846FFF7E9
:10181C000DFB0A4B1B68203319460948FFF72EFBBA
:10182C00084B5B68074A43F08053536000BF103786
:10183C00BD4680BDD41B000888A300207CA30020DB
:10184C0068A3002000ED00E080B582B000AFFFF788
:10185C0083FA0346012B36D11D4B1B6801331C4AFE
:10186C0013601B4B1B68002B04D140F275111948F7
:10187C00FFF757F8184B1B68002B24D01CE0164BB5
:10188C00DB68DB687B607B68002B04D14FF4C17193
:10189C001048FFF746F87B6820331846FFF7C6FA66
:1018AC007B685B6C002B04D07B6834331846FFF7E5
:1018BC00BDFA7868FFF7E2FE074BDB681A68044B49
:1018CC001B689A42DBD900BF0837BD4680BD00BFFC
:1018DC0088A30020D41B000868A3002080B582B028
:1018EC0000AF78607B68002B04D140F2A111124844
:1018FC00FFF717F87B681B6B002B04D07B68203339
:10190C001846FFF793FA7B685B6C002B04D07B685E
:10191C0034331846FFF78AFA084B1B687A689A42E8
:10192C0005D1074B5B68064A43F08053536000BFF8
:10193C000837BD4680BD00BFD41B00087CA3002027
:10194C0000ED00E080B582B000AF78607B68002BC2
:10195C0004D140F2C5111948FEF7E3FF7B685A68C1
:10196C00174B1B685B689A4223D9154B1B685A6846
:10197C007B685A637B685A6813469B0013449B0030
:10198C00104A1A447B681B6B9A420DD17B6820333A
:10199C001846FFF74BFA0A4B1B685A687B685A606B
:1019AC007868FFF76BFE04E0054B1B685A687B6890
:1019BC005A6000BF0837BD4680BD00BFD41B00086D
:1019CC007CA3002028A2002080B500AF104B1B6820
:1019DC005A680F4B1B689B6C9A4216D00C4B1B68B9
:1019EC0020331846FFF722FA094B1A68084B1B687C
:1019FC00926C5A60064B1A68054B1B68926C5A63C2
:101A0C00034B1B681846FFF739FE00BF80BD00BFB3
:101A1C007CA3002080B584B000AF78607B680F2B6E
:101A2C0004D94FF404711448FEF77BFF134B1B6869
:101A3C009B6CFB60114B1B689A6C104B1B685B68B2
:101A4C009A4203D10D4B1B687A685A600B4B1B688A
:101A5C007A689A647A68FB689A4209D07A68FB685B
:101A6C009A4205D9064B5B68054A43F08053536094
:101A7C0000BF1037BD4680BDD41B00087CA30020DE
:101A8C0000ED00E070B50D4D0D4C641BA41000264C
:101A9C00A64209D10B4D0C4C00F026F8641BA41087
:101AAC000026A64205D170BD55F8043B9847013677
:101ABC00EEE755F8043B98470136F2E7F81B0008AF
:101ACC00F81B0008F81B0008FC1B00080A44914294
:101ADC0000F1FF3300D1704710B511F8014B03F83A
:101AEC00014F9142F9D110BDF8B500BFF8BC08BC4C
:101AFC009E467047F8B500BFF8BC08BC9E467047C0
:101B0C0054687265616420333A204D757465782091
:101B1C006C6F636B20737563636565646564200A21
:101B2C00000000002E2E2F52544F535F4B65726EE7
:101B3C00656C2F5372632F52746F732E6300000009
:101B4C002E2E2F52544F535F4B65726E656C2F5374
:101B5C0072632F52746F735F6C6973742E63000021
:101B6C002E2E2F52544F535F4B65726E656C2F5354
:101B7C0072632F52746F735F6D61696C626F782E34
:101B8C00630000002E2E2F52544F535F4B65726E24
:101B9C00656C2F5372632F52746F735F6D75746520
:101BAC00782E63002E2E2F52544F535F4B65726E5E
:101BBC00656C2F5372632F52746F735F73656D6115
:101BCC0070686F72652E63002E2E2F52544F535F28
:101BDC004B65726E656C2F5372632F52746F735F0B
:0C1BEC007468726561642E6300000000E4
:041BF800D10100080F
:041BFC00AD0100082F
:041C00000F000000D1
:04000005080008DD0A
:00000001FF
